{
  "contractName": "CapstoneMarket",
  "abi": [
    {
      "inputs": [],
      "payable": false,
      "stateMutability": "nonpayable",
      "type": "constructor"
    },
    {
      "payable": true,
      "stateMutability": "payable",
      "type": "fallback"
    },
    {
      "constant": true,
      "inputs": [],
      "name": "contractFeesEarned",
      "outputs": [
        {
          "internalType": "uint256",
          "name": "",
          "type": "uint256"
        }
      ],
      "payable": false,
      "stateMutability": "view",
      "type": "function"
    },
    {
      "constant": true,
      "inputs": [],
      "name": "ethLockedInContract",
      "outputs": [
        {
          "internalType": "uint256",
          "name": "",
          "type": "uint256"
        }
      ],
      "payable": false,
      "stateMutability": "view",
      "type": "function"
    },
    {
      "constant": true,
      "inputs": [
        {
          "internalType": "address",
          "name": "",
          "type": "address"
        }
      ],
      "name": "isMerchant",
      "outputs": [
        {
          "internalType": "bool",
          "name": "",
          "type": "bool"
        }
      ],
      "payable": false,
      "stateMutability": "view",
      "type": "function"
    },
    {
      "constant": true,
      "inputs": [],
      "name": "marketName",
      "outputs": [
        {
          "internalType": "string",
          "name": "",
          "type": "string"
        }
      ],
      "payable": false,
      "stateMutability": "view",
      "type": "function"
    },
    {
      "constant": true,
      "inputs": [
        {
          "internalType": "address",
          "name": "",
          "type": "address"
        }
      ],
      "name": "merchantNumOrders",
      "outputs": [
        {
          "internalType": "uint256",
          "name": "",
          "type": "uint256"
        }
      ],
      "payable": false,
      "stateMutability": "view",
      "type": "function"
    },
    {
      "constant": true,
      "inputs": [
        {
          "internalType": "address",
          "name": "",
          "type": "address"
        },
        {
          "internalType": "uint256",
          "name": "",
          "type": "uint256"
        }
      ],
      "name": "merchantOrdersList",
      "outputs": [
        {
          "internalType": "uint256",
          "name": "",
          "type": "uint256"
        }
      ],
      "payable": false,
      "stateMutability": "view",
      "type": "function"
    },
    {
      "constant": true,
      "inputs": [],
      "name": "ordersCount",
      "outputs": [
        {
          "internalType": "uint256",
          "name": "",
          "type": "uint256"
        }
      ],
      "payable": false,
      "stateMutability": "view",
      "type": "function"
    },
    {
      "constant": true,
      "inputs": [
        {
          "internalType": "uint256",
          "name": "",
          "type": "uint256"
        }
      ],
      "name": "ordersList",
      "outputs": [
        {
          "internalType": "uint256",
          "name": "orderID",
          "type": "uint256"
        },
        {
          "internalType": "string",
          "name": "customerFirstName",
          "type": "string"
        },
        {
          "internalType": "string",
          "name": "customerLastName",
          "type": "string"
        },
        {
          "internalType": "address",
          "name": "customerID",
          "type": "address"
        },
        {
          "internalType": "address",
          "name": "merchantID",
          "type": "address"
        },
        {
          "internalType": "uint256",
          "name": "totalPrice",
          "type": "uint256"
        },
        {
          "internalType": "uint256",
          "name": "productID",
          "type": "uint256"
        },
        {
          "internalType": "uint8",
          "name": "quantity",
          "type": "uint8"
        },
        {
          "internalType": "uint256",
          "name": "amtPaid",
          "type": "uint256"
        },
        {
          "internalType": "bool",
          "name": "isFinalized",
          "type": "bool"
        }
      ],
      "payable": false,
      "stateMutability": "view",
      "type": "function"
    },
    {
      "constant": true,
      "inputs": [],
      "name": "productsCount",
      "outputs": [
        {
          "internalType": "uint256",
          "name": "",
          "type": "uint256"
        }
      ],
      "payable": false,
      "stateMutability": "view",
      "type": "function"
    },
    {
      "constant": true,
      "inputs": [
        {
          "internalType": "uint256",
          "name": "",
          "type": "uint256"
        }
      ],
      "name": "productsList",
      "outputs": [
        {
          "internalType": "address payable",
          "name": "merchantID",
          "type": "address"
        },
        {
          "internalType": "uint256",
          "name": "productNo",
          "type": "uint256"
        },
        {
          "internalType": "string",
          "name": "productName",
          "type": "string"
        },
        {
          "internalType": "string",
          "name": "productPictureURL",
          "type": "string"
        },
        {
          "internalType": "uint256",
          "name": "price",
          "type": "uint256"
        }
      ],
      "payable": false,
      "stateMutability": "view",
      "type": "function"
    },
    {
      "constant": true,
      "inputs": [],
      "name": "totalMarketVolumeAllTime",
      "outputs": [
        {
          "internalType": "uint256",
          "name": "",
          "type": "uint256"
        }
      ],
      "payable": false,
      "stateMutability": "view",
      "type": "function"
    },
    {
      "constant": true,
      "inputs": [
        {
          "internalType": "address",
          "name": "",
          "type": "address"
        }
      ],
      "name": "userNumOrders",
      "outputs": [
        {
          "internalType": "uint256",
          "name": "",
          "type": "uint256"
        }
      ],
      "payable": false,
      "stateMutability": "view",
      "type": "function"
    },
    {
      "constant": true,
      "inputs": [
        {
          "internalType": "address",
          "name": "",
          "type": "address"
        },
        {
          "internalType": "uint256",
          "name": "",
          "type": "uint256"
        }
      ],
      "name": "userOrdersList",
      "outputs": [
        {
          "internalType": "uint256",
          "name": "",
          "type": "uint256"
        }
      ],
      "payable": false,
      "stateMutability": "view",
      "type": "function"
    },
    {
      "constant": false,
      "inputs": [
        {
          "internalType": "address payable",
          "name": "_cEtherContract",
          "type": "address"
        }
      ],
      "name": "supplyEthToCompound",
      "outputs": [
        {
          "internalType": "bool",
          "name": "",
          "type": "bool"
        }
      ],
      "payable": true,
      "stateMutability": "payable",
      "type": "function"
    },
    {
      "constant": false,
      "inputs": [
        {
          "internalType": "address",
          "name": "_erc20Contract",
          "type": "address"
        },
        {
          "internalType": "address",
          "name": "_cErc20Contract",
          "type": "address"
        },
        {
          "internalType": "uint256",
          "name": "_numTokensToSupply",
          "type": "uint256"
        }
      ],
      "name": "supplyErc20ToCompound",
      "outputs": [
        {
          "internalType": "uint256",
          "name": "",
          "type": "uint256"
        }
      ],
      "payable": false,
      "stateMutability": "nonpayable",
      "type": "function"
    },
    {
      "constant": false,
      "inputs": [
        {
          "internalType": "uint256",
          "name": "amount",
          "type": "uint256"
        },
        {
          "internalType": "bool",
          "name": "redeemType",
          "type": "bool"
        },
        {
          "internalType": "address",
          "name": "_cErc20Contract",
          "type": "address"
        }
      ],
      "name": "redeemCErc20Tokens",
      "outputs": [
        {
          "internalType": "bool",
          "name": "",
          "type": "bool"
        }
      ],
      "payable": false,
      "stateMutability": "nonpayable",
      "type": "function"
    },
    {
      "constant": false,
      "inputs": [
        {
          "internalType": "uint256",
          "name": "amount",
          "type": "uint256"
        },
        {
          "internalType": "bool",
          "name": "redeemType",
          "type": "bool"
        },
        {
          "internalType": "address",
          "name": "_cEtherContract",
          "type": "address"
        }
      ],
      "name": "redeemCEth",
      "outputs": [],
      "payable": false,
      "stateMutability": "nonpayable",
      "type": "function"
    },
    {
      "constant": false,
      "inputs": [
        {
          "internalType": "string",
          "name": "_productName",
          "type": "string"
        },
        {
          "internalType": "uint256",
          "name": "_price",
          "type": "uint256"
        },
        {
          "internalType": "string",
          "name": "_pictureURL",
          "type": "string"
        }
      ],
      "name": "addProduct",
      "outputs": [],
      "payable": false,
      "stateMutability": "nonpayable",
      "type": "function"
    },
    {
      "constant": false,
      "inputs": [
        {
          "internalType": "uint256",
          "name": "_productID",
          "type": "uint256"
        },
        {
          "internalType": "uint8",
          "name": "_quantity",
          "type": "uint8"
        },
        {
          "internalType": "string",
          "name": "_firstName",
          "type": "string"
        },
        {
          "internalType": "string",
          "name": "_lastName",
          "type": "string"
        }
      ],
      "name": "placeOrder",
      "outputs": [],
      "payable": true,
      "stateMutability": "payable",
      "type": "function"
    },
    {
      "constant": false,
      "inputs": [
        {
          "internalType": "uint256",
          "name": "_productID",
          "type": "uint256"
        }
      ],
      "name": "getProductPrice",
      "outputs": [
        {
          "internalType": "uint256",
          "name": "",
          "type": "uint256"
        }
      ],
      "payable": false,
      "stateMutability": "nonpayable",
      "type": "function"
    },
    {
      "constant": false,
      "inputs": [
        {
          "internalType": "uint256",
          "name": "_productID",
          "type": "uint256"
        }
      ],
      "name": "getProductMerchantAddress",
      "outputs": [
        {
          "internalType": "address",
          "name": "",
          "type": "address"
        }
      ],
      "payable": false,
      "stateMutability": "nonpayable",
      "type": "function"
    },
    {
      "constant": false,
      "inputs": [],
      "name": "ownerWithdrawFunds",
      "outputs": [],
      "payable": false,
      "stateMutability": "nonpayable",
      "type": "function"
    },
    {
      "constant": false,
      "inputs": [],
      "name": "applyForMerchantStatus",
      "outputs": [],
      "payable": true,
      "stateMutability": "payable",
      "type": "function"
    },
    {
      "constant": false,
      "inputs": [
        {
          "internalType": "uint256",
          "name": "_orderID",
          "type": "uint256"
        }
      ],
      "name": "forMerchantFinalizeOrder",
      "outputs": [],
      "payable": false,
      "stateMutability": "nonpayable",
      "type": "function"
    },
    {
      "constant": false,
      "inputs": [
        {
          "internalType": "uint256",
          "name": "_orderID",
          "type": "uint256"
        },
        {
          "internalType": "uint8",
          "name": "_rating",
          "type": "uint8"
        }
      ],
      "name": "forBuyerOrderReview",
      "outputs": [],
      "payable": false,
      "stateMutability": "nonpayable",
      "type": "function"
    },
    {
      "constant": false,
      "inputs": [],
      "name": "getContractBalanceEthCompoundReturned",
      "outputs": [
        {
          "internalType": "uint256",
          "name": "",
          "type": "uint256"
        }
      ],
      "payable": false,
      "stateMutability": "nonpayable",
      "type": "function"
    }
  ],
  "bytecode": "0x60806040523480156200001157600080fd5b506040518060400160405280600f81526020017f43617073746f6e65204d61726b65740000000000000000000000000000000000815250600090805190602001906200005f929190620000cb565b506000613a9a819055506000613a9b8190555033600160006101000a81548173ffffffffffffffffffffffffffffffffffffffff021916908373ffffffffffffffffffffffffffffffffffffffff1602179055506000613a9c819055506000613a9d819055506200017a565b828054600181600116156101000203166002900490600052602060002090601f016020900481019282601f106200010e57805160ff19168380011785556200013f565b828001600101855582156200013f579182015b828111156200013e57825182559160200191906001019062000121565b5b5090506200014e919062000152565b5090565b6200017791905b808211156200017357600081600090555060010162000159565b5090565b90565b6124c5806200018a6000396000f3fe6080604052600436106101815760003560e01c8063a82fb78d116100d1578063e1320c471161008a578063e802a5af11610064578063e802a5af14610c2e578063eaa13cfe14610c59578063ee66fc0814610cbe578063fb62139314610ce957610181565b8063e1320c4714610aea578063e6bfd26a14610b4f578063e7bf7dfc14610bdf57610181565b8063a82fb78d146108e3578063a82ffd8814610952578063b176614f146109ae578063c6fb5014146109d9578063d0ace48e14610a40578063e0df7bb614610abf57610181565b8063467c6be91161013e5780635eb8d90b116101185780635eb8d90b146105c757806367318b6c146105de57806381bc3c731461073f5780638f29695a1461077a57610181565b8063467c6be9146105235780635508e3f71461052d5780635c47c6ea1461055857610181565b806301400230146101835780630834e0651461033d57806313269d4f146103b85780631a2f71671461040057806335daa731146104695780633b7ba25f14610494575b005b34801561018f57600080fd5b506101bc600480360360208110156101a657600080fd5b8101908080359060200190929190505050610e52565b604051808b815260200180602001806020018a73ffffffffffffffffffffffffffffffffffffffff1673ffffffffffffffffffffffffffffffffffffffff1681526020018973ffffffffffffffffffffffffffffffffffffffff1673ffffffffffffffffffffffffffffffffffffffff1681526020018881526020018781526020018660ff1660ff1681526020018581526020018415151515815260200183810383528c818151815260200191508051906020019080838360005b83811015610292578082015181840152602081019050610277565b50505050905090810190601f1680156102bf5780820380516001836020036101000a031916815260200191505b5083810382528b818151815260200191508051906020019080838360005b838110156102f85780820151818401526020810190506102dd565b50505050905090810190601f1680156103255780820380516001836020036101000a031916815260200191505b509c5050505050505050505050505060405180910390f35b34801561034957600080fd5b506103766004803603602081101561036057600080fd5b8101908080359060200190929190505050611034565b604051808273ffffffffffffffffffffffffffffffffffffffff1673ffffffffffffffffffffffffffffffffffffffff16815260200191505060405180910390f35b3480156103c457600080fd5b506103fe600480360360408110156103db57600080fd5b8101908080359060200190929190803560ff169060200190929190505050611074565b005b34801561040c57600080fd5b5061044f6004803603602081101561042357600080fd5b81019080803573ffffffffffffffffffffffffffffffffffffffff16906020019092919050505061112c565b604051808215151515815260200191505060405180910390f35b34801561047557600080fd5b5061047e61114d565b6040518082815260200191505060405180910390f35b3480156104a057600080fd5b5061050d600480360360608110156104b757600080fd5b81019080803573ffffffffffffffffffffffffffffffffffffffff169060200190929190803573ffffffffffffffffffffffffffffffffffffffff16906020019092919080359060200190929190505050611154565b6040518082815260200191505060405180910390f35b61052b6113d1565b005b34801561053957600080fd5b506105426114af565b6040518082815260200191505060405180910390f35b34801561056457600080fd5b506105b16004803603604081101561057b57600080fd5b81019080803573ffffffffffffffffffffffffffffffffffffffff169060200190929190803590602001909291905050506114b6565b6040518082815260200191505060405180910390f35b3480156105d357600080fd5b506105dc6114e5565b005b3480156105ea57600080fd5b506106176004803603602081101561060157600080fd5b81019080803590602001909291905050506115b6565b604051808673ffffffffffffffffffffffffffffffffffffffff1673ffffffffffffffffffffffffffffffffffffffff1681526020018581526020018060200180602001848152602001838103835286818151815260200191508051906020019080838360005b8381101561069957808201518184015260208101905061067e565b50505050905090810190601f1680156106c65780820380516001836020036101000a031916815260200191505b50838103825285818151815260200191508051906020019080838360005b838110156106ff5780820151818401526020810190506106e4565b50505050905090810190601f16801561072c5780820380516001836020036101000a031916815260200191505b5097505050505050505060405180910390f35b34801561074b57600080fd5b506107786004803603602081101561076257600080fd5b8101908080359060200190929190505050611741565b005b34801561078657600080fd5b506108e16004803603606081101561079d57600080fd5b81019080803590602001906401000000008111156107ba57600080fd5b8201836020820111156107cc57600080fd5b803590602001918460018302840111640100000000831117156107ee57600080fd5b91908080601f016020809104026020016040519081016040528093929190818152602001838380828437600081840152601f19601f820116905080830192505050505050509192919290803590602001909291908035906020019064010000000081111561085b57600080fd5b82018360208201111561086d57600080fd5b8035906020019184600183028401116401000000008311171561088f57600080fd5b91908080601f016020809104026020016040519081016040528093929190818152602001838380828437600081840152601f19601f820116905080830192505050505050509192919290505050611883565b005b3480156108ef57600080fd5b5061093c6004803603604081101561090657600080fd5b81019080803573ffffffffffffffffffffffffffffffffffffffff169060200190929190803590602001909291905050506119ea565b6040518082815260200191505060405180910390f35b6109946004803603602081101561096857600080fd5b81019080803573ffffffffffffffffffffffffffffffffffffffff169060200190929190505050611a19565b604051808215151515815260200191505060405180910390f35b3480156109ba57600080fd5b506109c3611ba0565b6040518082815260200191505060405180910390f35b3480156109e557600080fd5b50610a3e600480360360608110156109fc57600080fd5b8101908080359060200190929190803515159060200190929190803573ffffffffffffffffffffffffffffffffffffffff169060200190929190505050611ba7565b005b348015610a4c57600080fd5b50610aa560048036036060811015610a6357600080fd5b8101908080359060200190929190803515159060200190929190803573ffffffffffffffffffffffffffffffffffffffff169060200190929190505050611d26565b604051808215151515815260200191505060405180910390f35b348015610acb57600080fd5b50610ad4611f03565b6040518082815260200191505060405180910390f35b348015610af657600080fd5b50610b3960048036036020811015610b0d57600080fd5b81019080803573ffffffffffffffffffffffffffffffffffffffff169060200190929190505050611f0a565b6040518082815260200191505060405180910390f35b348015610b5b57600080fd5b50610b64611f23565b6040518080602001828103825283818151815260200191508051906020019080838360005b83811015610ba4578082015181840152602081019050610b89565b50505050905090810190601f168015610bd15780820380516001836020036101000a031916815260200191505b509250505060405180910390f35b348015610beb57600080fd5b50610c1860048036036020811015610c0257600080fd5b8101908080359060200190929190505050611fc1565b6040518082815260200191505060405180910390f35b348015610c3a57600080fd5b50610c43611fe1565b6040518082815260200191505060405180910390f35b348015610c6557600080fd5b50610ca860048036036020811015610c7c57600080fd5b81019080803573ffffffffffffffffffffffffffffffffffffffff169060200190929190505050612000565b6040518082815260200191505060405180910390f35b348015610cca57600080fd5b50610cd3612019565b6040518082815260200191505060405180910390f35b610e5060048036036080811015610cff57600080fd5b8101908080359060200190929190803560ff16906020019092919080359060200190640100000000811115610d3357600080fd5b820183602082011115610d4557600080fd5b80359060200191846001830284011164010000000083111715610d6757600080fd5b91908080601f016020809104026020016040519081016040528093929190818152602001838380828437600081840152601f19601f82011690508083019250505050505050919291929080359060200190640100000000811115610dca57600080fd5b820183602082011115610ddc57600080fd5b80359060200191846001830284011164010000000083111715610dfe57600080fd5b91908080601f016020809104026020016040519081016040528093929190818152602001838380828437600081840152601f19601f820116905080830192505050505050509192919290505050612020565b005b6002816103e88110610e6057fe5b600a0201600091509050806000015490806001018054600181600116156101000203166002900480601f016020809104026020016040519081016040528092919081815260200182805460018160011615610100020316600290048015610f085780601f10610edd57610100808354040283529160200191610f08565b820191906000526020600020905b815481529060010190602001808311610eeb57829003601f168201915b505050505090806002018054600181600116156101000203166002900480601f016020809104026020016040519081016040528092919081815260200182805460018160011615610100020316600290048015610fa65780601f10610f7b57610100808354040283529160200191610fa6565b820191906000526020600020905b815481529060010190602001808311610f8957829003601f168201915b5050505050908060030160009054906101000a900473ffffffffffffffffffffffffffffffffffffffff16908060040160009054906101000a900473ffffffffffffffffffffffffffffffffffffffff16908060050154908060060154908060070160009054906101000a900460ff16908060080154908060090160009054906101000a900460ff1690508a565b6000612712826103e8811061104557fe5b6005020160000160009054906101000a900473ffffffffffffffffffffffffffffffffffffffff169050919050565b6002826103e8811061108257fe5b600a020160030160009054906101000a900473ffffffffffffffffffffffffffffffffffffffff1673ffffffffffffffffffffffffffffffffffffffff163373ffffffffffffffffffffffffffffffffffffffff16146110e157600080fd5b613aa5600083815260200190815260200160002060009054906101000a900460ff1661110c57600080fd5b8060ff16613aa46000848152602001908152602001600020819055505050565b613aa36020528060005260406000206000915054906101000a900460ff1681565b613a9b5481565b600080849050600084905060008173ffffffffffffffffffffffffffffffffffffffff1663bd6d894d6040518163ffffffff1660e01b8152600401602060405180830381600087803b1580156111a957600080fd5b505af11580156111bd573d6000803e3d6000fd5b505050506040513d60208110156111d357600080fd5b8101908080519060200190929190505050905060008273ffffffffffffffffffffffffffffffffffffffff1663ae9d70b06040518163ffffffff1660e01b8152600401602060405180830381600087803b15801561123057600080fd5b505af1158015611244573d6000803e3d6000fd5b505050506040513d602081101561125a57600080fd5b810190808051906020019092919050505090508373ffffffffffffffffffffffffffffffffffffffff1663095ea7b388886040518363ffffffff1660e01b8152600401808373ffffffffffffffffffffffffffffffffffffffff1673ffffffffffffffffffffffffffffffffffffffff16815260200182815260200192505050602060405180830381600087803b1580156112f457600080fd5b505af1158015611308573d6000803e3d6000fd5b505050506040513d602081101561131e57600080fd5b81019080805190602001909291905050505060008373ffffffffffffffffffffffffffffffffffffffff1663a0712d68886040518263ffffffff1660e01b815260040180828152602001915050602060405180830381600087803b15801561138557600080fd5b505af1158015611399573d6000803e3d6000fd5b505050506040513d60208110156113af57600080fd5b8101908080519060200190929190505050905080955050505050509392505050565b67016345785d8a000034146113e557600080fd5b60001515613aa360003373ffffffffffffffffffffffffffffffffffffffff1673ffffffffffffffffffffffffffffffffffffffff16815260200190815260200160002060009054906101000a900460ff1615151461144357600080fd5b6001613aa360003373ffffffffffffffffffffffffffffffffffffffff1673ffffffffffffffffffffffffffffffffffffffff16815260200190815260200160002060006101000a81548160ff02191690831515021790555034613a9c60008282540192505081905550565b613a9d5481565b613aa260205281600052604060002081815481106114d057fe5b90600052602060002001600091509150505481565b600160009054906101000a900473ffffffffffffffffffffffffffffffffffffffff1673ffffffffffffffffffffffffffffffffffffffff163373ffffffffffffffffffffffffffffffffffffffff161461153f57600080fd5b600160009054906101000a900473ffffffffffffffffffffffffffffffffffffffff1673ffffffffffffffffffffffffffffffffffffffff166108fc613a9c549081150290604051600060405180830381858888f193505050501580156115aa573d6000803e3d6000fd5b506000613a9c81905550565b612712816103e881106115c557fe5b600502016000915090508060000160009054906101000a900473ffffffffffffffffffffffffffffffffffffffff1690806001015490806002018054600181600116156101000203166002900480601f0160208091040260200160405190810160405280929190818152602001828054600181600116156101000203166002900480156116935780601f1061166857610100808354040283529160200191611693565b820191906000526020600020905b81548152906001019060200180831161167657829003601f168201915b505050505090806003018054600181600116156101000203166002900480601f0160208091040260200160405190810160405280929190818152602001828054600181600116156101000203166002900480156117315780601f1061170657610100808354040283529160200191611731565b820191906000526020600020905b81548152906001019060200180831161171457829003601f168201915b5050505050908060040154905085565b6002816103e8811061174f57fe5b600a020160040160009054906101000a900473ffffffffffffffffffffffffffffffffffffffff1673ffffffffffffffffffffffffffffffffffffffff163373ffffffffffffffffffffffffffffffffffffffff16146117ae57600080fd5b60016002826103e881106117be57fe5b600a020160090160006101000a81548160ff02191690831515021790555060006002826103e881106117ec57fe5b600a020160040160009054906101000a900473ffffffffffffffffffffffffffffffffffffffff1690508073ffffffffffffffffffffffffffffffffffffffff166108fc606460636002866103e8811061184257fe5b600a020160080154028161185257fe5b049081150290604051600060405180830381858888f1935050505015801561187e573d6000803e3d6000fd5b505050565b613aa360003373ffffffffffffffffffffffffffffffffffffffff1673ffffffffffffffffffffffffffffffffffffffff16815260200190815260200160002060009054906101000a900460ff166118da57600080fd5b6040518060a001604052803373ffffffffffffffffffffffffffffffffffffffff168152602001613a9a548152602001848152602001828152602001670de0b6b3a76400008402815250612712613a9a546103e8811061193657fe5b6005020160008201518160000160006101000a81548173ffffffffffffffffffffffffffffffffffffffff021916908373ffffffffffffffffffffffffffffffffffffffff1602179055506020820151816001015560408201518160020190805190602001906119a79291906123eb565b5060608201518160030190805190602001906119c49291906123eb565b5060808201518160040155905050613a9a60008154809291906001019190505550505050565b613aa06020528160005260406000208181548110611a0457fe5b90600052602060002001600091509150505481565b60008082905060008173ffffffffffffffffffffffffffffffffffffffff1663bd6d894d6040518163ffffffff1660e01b8152600401602060405180830381600087803b158015611a6957600080fd5b505af1158015611a7d573d6000803e3d6000fd5b505050506040513d6020811015611a9357600080fd5b8101908080519060200190929190505050905060008273ffffffffffffffffffffffffffffffffffffffff1663ae9d70b06040518163ffffffff1660e01b8152600401602060405180830381600087803b158015611af057600080fd5b505af1158015611b04573d6000803e3d6000fd5b505050506040513d6020811015611b1a57600080fd5b810190808051906020019092919050505090508273ffffffffffffffffffffffffffffffffffffffff16631249c58b346203d090906040518363ffffffff1660e01b81526004016000604051808303818589803b158015611b7a57600080fd5b5088f1158015611b8e573d6000803e3d6000fd5b50505050505060019350505050919050565b613a9e5481565b60008190506000600115158415151415611c6f578173ffffffffffffffffffffffffffffffffffffffff1663db006a75866040518263ffffffff1660e01b815260040180828152602001915050602060405180830381600087803b158015611c0e57600080fd5b505af1158015611c22573d6000803e3d6000fd5b505050506040513d6020811015611c3857600080fd5b810190808051906020019092919050505090503073ffffffffffffffffffffffffffffffffffffffff1631613a9e81905550611d1f565b8173ffffffffffffffffffffffffffffffffffffffff1663852a12e3866040518263ffffffff1660e01b815260040180828152602001915050602060405180830381600087803b158015611cc257600080fd5b505af1158015611cd6573d6000803e3d6000fd5b505050506040513d6020811015611cec57600080fd5b810190808051906020019092919050505090503073ffffffffffffffffffffffffffffffffffffffff1631613a9e819055505b5050505050565b6000808290506000600115158515151415611dd0578173ffffffffffffffffffffffffffffffffffffffff1663db006a75876040518263ffffffff1660e01b815260040180828152602001915050602060405180830381600087803b158015611d8e57600080fd5b505af1158015611da2573d6000803e3d6000fd5b505050506040513d6020811015611db857600080fd5b81019080805190602001909291905050509050611e61565b8173ffffffffffffffffffffffffffffffffffffffff1663852a12e3876040518263ffffffff1660e01b815260040180828152602001915050602060405180830381600087803b158015611e2357600080fd5b505af1158015611e37573d6000803e3d6000fd5b505050506040513d6020811015611e4d57600080fd5b810190808051906020019092919050505090505b60008114611ed7576040517f08c379a00000000000000000000000000000000000000000000000000000000081526004018080602001828103825260128152602001807f72656465656d526573756c74206572726f72000000000000000000000000000081525060200191505060405180910390fd5b3073ffffffffffffffffffffffffffffffffffffffff1631613a9e819055506001925050509392505050565b613a9a5481565b613aa16020528060005260406000206000915090505481565b60008054600181600116156101000203166002900480601f016020809104026020016040519081016040528092919081815260200182805460018160011615610100020316600290048015611fb95780601f10611f8e57610100808354040283529160200191611fb9565b820191906000526020600020905b815481529060010190602001808311611f9c57829003601f168201915b505050505081565b6000612712826103e88110611fd257fe5b60050201600401549050919050565b60003073ffffffffffffffffffffffffffffffffffffffff1631905090565b613a9f6020528060005260406000206000915090505481565b613a9c5481565b600061202b85611fc1565b90508360ff16810234101561203f57600080fd5b604051806101400160405280613a9b5481526020018481526020018381526020013373ffffffffffffffffffffffffffffffffffffffff16815260200161208587611034565b73ffffffffffffffffffffffffffffffffffffffff1681526020018560ff16830281526020018681526020018560ff168152602001348152602001600015158152506002613a9b546103e881106120d857fe5b600a02016000820151816000015560208201518160010190805190602001906121029291906123eb565b50604082015181600201908051906020019061211f9291906123eb565b5060608201518160030160006101000a81548173ffffffffffffffffffffffffffffffffffffffff021916908373ffffffffffffffffffffffffffffffffffffffff16021790555060808201518160040160006101000a81548173ffffffffffffffffffffffffffffffffffffffff021916908373ffffffffffffffffffffffffffffffffffffffff16021790555060a0820151816005015560c0820151816006015560e08201518160070160006101000a81548160ff021916908360ff16021790555061010082015181600801556101208201518160090160006101000a81548160ff021916908315150217905550905050613a9f60003373ffffffffffffffffffffffffffffffffffffffff1673ffffffffffffffffffffffffffffffffffffffff16815260200190815260200160002060008154809291906001019190505550613aa060003373ffffffffffffffffffffffffffffffffffffffff1673ffffffffffffffffffffffffffffffffffffffff168152602001908152602001600020613a9b549080600181540180825580915050906001820390600052602060002001600090919290919091505550613aa260006122dd87611034565b73ffffffffffffffffffffffffffffffffffffffff1673ffffffffffffffffffffffffffffffffffffffff168152602001908152602001600020613a9b549080600181540180825580915050906001820390600052602060002001600090919290919091505550613aa1600061235287611034565b73ffffffffffffffffffffffffffffffffffffffff1673ffffffffffffffffffffffffffffffffffffffff16815260200190815260200160002060008154809291906001019190505550613a9b600081548092919060010191905055506000606460013402816123be57fe5b04905080613a9c6000828254019250508190555034613a9d60008282540192505081905550505050505050565b828054600181600116156101000203166002900490600052602060002090601f016020900481019282601f1061242c57805160ff191683800117855561245a565b8280016001018555821561245a579182015b8281111561245957825182559160200191906001019061243e565b5b509050612467919061246b565b5090565b61248d91905b80821115612489576000816000905550600101612471565b5090565b9056fea265627a7a7231582018973ef9d507fbe564b054b37e9561aeabcadc0739dd2b568099ddcccff664e664736f6c634300050c0032",
  "source": "pragma solidity ^0.5.12;\n\n\nimport './CErc20.sol';\nimport './CEth.sol';\nimport './Erc201.sol';\n\ncontract CapstoneMarket{\n    \n   string public marketName;\n   address payable adminAddress;\n   Order[1000] public ordersList;\n   Product[1000] public productsList;\n   uint256 public productsCount;\n   uint256 public ordersCount;\n   uint256 public contractFeesEarned;\n   uint256 public totalMarketVolumeAllTime;\n   uint256 public ethLockedInContract;\n   // Mapping of users to uint256 userNumOrders : Assigns users a number of orders variable;\n   mapping(address => uint256) public userNumOrders;\n   //Mapping of users to an array of uint256 orderID's: Assigns user an array of orderID's;\n   mapping(address => uint256[]) public userOrdersList;\n   //\n    mapping(address => uint256) public merchantNumOrders;\n   //\n    mapping(address => uint256[]) public merchantOrdersList;\n   //Mapping to keep track of addresses who have merchant stauts\n   mapping(address => bool) public isMerchant;\n   //Mapping to keep track of OrderID's, and the order review rating;\n   mapping(uint256 => uint256) orderScale1To10Rating;\n   //Mapping to keep track of order status( finalized or pending)\n   mapping(uint256 => bool) isOrderFinalized;\n\n   \n    \n    \n    constructor() public{\n        marketName = \"Capstone Market\";\n        productsCount = 0;\n        ordersCount = 0;\n        adminAddress = msg.sender;\n        contractFeesEarned = 0;\n        totalMarketVolumeAllTime = 0;\n    }\n    \n    struct Product {\n        address payable merchantID;\n        uint256 productNo;\n        string productName;\n        string productPictureURL;\n        uint256 price;\n    }\n    \n    //Define an Order -> Struct\n    struct Order {\n        uint256 orderID;\n        string customerFirstName;\n        string customerLastName;\n        address customerID;\n        address merchantID;\n        uint256 totalPrice;\n        uint256 productID;\n        uint8 quantity;\n        uint256 amtPaid;\n        bool isFinalized;\n    }\n    \n    struct Merchant{\n        address merchantAddress;\n        uint256 rating;\n        uint256 numOrders;\n        Product[] products;\n        string[] feedback;\n    }\n    \n    //Compound code \n    function supplyEthToCompound(address payable _cEtherContract)\n        public\n        payable\n        returns (bool)\n    {\n        // Create a reference to the corresponding cToken contract\n        CEth cToken = CEth(_cEtherContract);\n\n        // Amount of current exchange rate from cToken to underlying\n        uint256 exchangeRateMantissa = cToken.exchangeRateCurrent();\n     \n\n        // Amount added to you supply balance this block\n        uint256 supplyRateMantissa = cToken.supplyRatePerBlock();\n\n\n        cToken.mint.value(msg.value).gas(250000)();\n        return true;\n    }\n    \n    function supplyErc20ToCompound(\n        address _erc20Contract,\n        address _cErc20Contract,\n        uint256 _numTokensToSupply\n    ) public returns (uint) {\n        // Create a reference to the underlying asset contract, like DAI.\n        Erc201 underlying = Erc201(_erc20Contract);\n\n        // Create a reference to the corresponding cToken contract, like cDAI\n        CErc20 cToken = CErc20(_cErc20Contract);\n\n        // Amount of current exchange rate from cToken to underlying\n        uint256 exchangeRateMantissa = cToken.exchangeRateCurrent();\n        \n\n        // Amount added to you supply balance this block\n        uint256 supplyRateMantissa = cToken.supplyRatePerBlock();\n       \n\n        // Approve transfer on the ERC20 contract\n        underlying.approve(_cErc20Contract, _numTokensToSupply);\n\n        // Mint cTokens\n        uint mintResult = cToken.mint(_numTokensToSupply);\n        return mintResult;\n    }\n\n    function redeemCErc20Tokens(\n        uint256 amount,\n        bool redeemType,\n        address _cErc20Contract\n    ) public returns (bool) {\n        // Create a reference to the corresponding cToken contract, like cDAI\n        CErc20 cToken = CErc20(_cErc20Contract);\n\n        // `amount` is scaled up by 1e18 to avoid decimals\n\n        uint256 redeemResult;\n\n        if (redeemType == true) {\n            // Retrieve your asset based on a cToken amount\n            redeemResult = cToken.redeem(amount);\n        } else {\n            // Retrieve your asset based on an amount of the asset\n            redeemResult = cToken.redeemUnderlying(amount);\n        }\n\n        // Error codes are listed here:\n        // https://compound.finance/developers/ctokens#ctoken-error-codes\n        \n        require(redeemResult == 0, \"redeemResult error\");\n        ethLockedInContract = address(this).balance;\n        return true;\n    }\n    \n    function redeemCEth(\n        uint256 amount,\n        bool redeemType,\n        address _cEtherContract\n    ) public{\n        // Create a reference to the corresponding cToken contract\n        CEth cToken = CEth(_cEtherContract);\n\n        // `amount` is scaled up by 1e18 to avoid decimals\n\n        uint256 redeemResult;\n\n        if (redeemType == true) {\n            // Retrieve your asset based on a cToken amount\n            redeemResult = cToken.redeem(amount);\n            ethLockedInContract = address(this).balance;\n        } else {\n            // Retrieve your asset based on an amount of the asset\n            redeemResult = cToken.redeemUnderlying(amount);\n            ethLockedInContract = address(this).balance;\n        }\n\n        // Error codes are listed here:\n        // https://compound.finance/docs/ctokens#ctoken-error-codes\n       \n    }\n    \n    \n    ///////ENDS\n    //Add Product (required that caller is contract deployer, aka msg.sender (adminAddress)). Input price in ether!! Function will convert to wei amount\n    function addProduct(string memory _productName, uint256 _price, string memory _pictureURL) public {\n        require(isMerchant[msg.sender]);\n        productsList[productsCount] = Product(msg.sender,productsCount,_productName,_pictureURL,_price*1000000000000000000);\n        productsCount++;\n    }\n    \n    //Place order and require that msg.value >= order total price.\n    function placeOrder(uint256 _productID, uint8 _quantity, string memory _firstName, string memory _lastName) public payable{\n        uint256 getLocalProductPrice = getProductPrice(_productID);\n        //msg.value(getLocalProductPrice*_quantity);\n        require(msg.value >= (getLocalProductPrice*_quantity));\n        ordersList[ordersCount] = Order(ordersCount, _firstName,_lastName,msg.sender,getProductMerchantAddress(_productID),getLocalProductPrice*_quantity,_productID,_quantity, msg.value,false);\n        userNumOrders[msg.sender]++;\n        userOrdersList[msg.sender].push(ordersCount);\n        merchantOrdersList[getProductMerchantAddress(_productID)].push(ordersCount);\n        merchantNumOrders[getProductMerchantAddress(_productID)]++;\n        ordersCount++;\n        //1%orderfee\n        uint256 orderFee =  (msg.value * 1)/100;\n        //getProductMerchantAddress(_productID).transfer(orderAmtFeeDeducted);\n        //Update contracts fees earned variable to keep track\n        contractFeesEarned+=(orderFee);\n        totalMarketVolumeAllTime += msg.value;\n        \n    }\n    \n    //Gets Price of product (input productID) and returns it. Use this function for fetching prices for orders etc. Returns price in wei. To convert to ETH, *100000000000000000\n    function getProductPrice(uint256 _productID) public returns(uint256){\n        return (productsList[_productID].price);\n    }\n    \n    //Get Product Merchant\n     function getProductMerchantAddress(uint256 _productID) public returns(address){\n        return productsList[_productID].merchantID;\n    }\n    \n    //Withdraws market funds to contract deployer (msg.sender)\n    function ownerWithdrawFunds() public {\n        require(msg.sender==adminAddress);\n        adminAddress.transfer(contractFeesEarned);\n        contractFeesEarned=0;\n    }\n    \n    //Apply to be a merchant\n    function applyForMerchantStatus() public payable{\n        //Require that address pays a .1ETH fee\n        require(msg.value==100000000000000000);\n        //Require that address isn't already a merchant.\n        require(isMerchant[msg.sender] == false);\n        isMerchant[msg.sender] = true;\n        contractFeesEarned += msg.value;\n    }\n    \n    //Merchant finalize order to recieve funds \n    function forMerchantFinalizeOrder(uint256 _orderID) public {\n        require(msg.sender == ordersList[_orderID].merchantID);\n        ordersList[_orderID].isFinalized = true;\n        address payable merchAddyTemp = address(uint160(ordersList[_orderID].merchantID));\n        //1% sales tax exercised on seller\n        merchAddyTemp.transfer(((ordersList[_orderID].amtPaid)* 99) / 100 );\n    }\n    \n    //Buyer review order\n    function forBuyerOrderReview(uint256 _orderID, uint8 _rating) public{\n        require(msg.sender == ordersList[_orderID].customerID);\n        require(isOrderFinalized[_orderID]);\n        orderScale1To10Rating[_orderID] = _rating;\n    }\n    \n    function getContractBalanceEthCompoundReturned() public returns(uint256){\n        return address(this).balance;\n    }\n        \n    ////////GETTER FUNCTIONS PROVIDED FREE BY SOLIDITY, THUS THEY ARE LEFT OUT HERE\n    // function getOrder(uint256 _orderID ) public returns(uint256,string memory, string memory, address, uint256, uint256, uint8 ){\n    //     require(msg.sender==adminAddress); \n    //     return(ordersList[_orderID].orderID, \n    //         ordersList[_orderID].customerFirstName, \n    //         ordersList[_orderID].customerLastName, \n    //         ordersList[_orderID].customerID, \n    //         ordersList[_orderID].totalPrice, \n    //         ordersList[_orderID].productID, \n    //         ordersList[_orderID].quantity);\n    // }\n    \n    // function getProduct(uint256 _productID) public returns(uint256,string memory, string memory, uint256){\n    //     return(productsList[_productID].productNo,\n    //         productsList[_productID].productName,\n    //         productsList[_productID].productPictureURL,\n    //         productsList[_productID].price);\n        \n    // }\n    // This is needed to receive ETH when calling `redeemCEth`\n    function() external payable {}\n    \n}",
  "sourcePath": "/Applications/XAMPP/xamppfiles/htdocs/CapstoneMarket/contracts/CapstoneMarket.sol",
  "compiler": {
    "name": "solc",
    "version": "0.5.12+commit.7709ece9.Emscripten.clang"
  },
  "schemaVersion": "3.3.3",
  "updatedAt": "2021-04-20T12:37:52.129Z",
  "networkType": "ethereum",
  "devdoc": {
    "methods": {}
  },
  "userdoc": {
    "methods": {
      "addProduct(string,uint256,string)": {
        "notice": "////ENDS"
      }
    }
  }
}